{
  "contractName": "FoodTransportation",
  "abi": [
    {
      "constant": false,
      "inputs": [
        {
          "internalType": "string",
          "name": "food",
          "type": "string"
        },
        {
          "internalType": "string",
          "name": "locationName",
          "type": "string"
        },
        {
          "internalType": "string",
          "name": "transPerson",
          "type": "string"
        }
      ],
      "name": "addNewLocation",
      "outputs": [],
      "payable": false,
      "stateMutability": "nonpayable",
      "type": "function"
    },
    {
      "constant": true,
      "inputs": [],
      "name": "getLocationNum",
      "outputs": [
        {
          "internalType": "uint8",
          "name": "",
          "type": "uint8"
        }
      ],
      "payable": false,
      "stateMutability": "view",
      "type": "function"
    },
    {
      "constant": true,
      "inputs": [],
      "name": "getFoodName",
      "outputs": [
        {
          "internalType": "string",
          "name": "",
          "type": "string"
        }
      ],
      "payable": false,
      "stateMutability": "view",
      "type": "function"
    },
    {
      "constant": true,
      "inputs": [
        {
          "internalType": "uint8",
          "name": "locationNo",
          "type": "uint8"
        }
      ],
      "name": "getLocation",
      "outputs": [
        {
          "internalType": "string",
          "name": "",
          "type": "string"
        },
        {
          "internalType": "string",
          "name": "",
          "type": "string"
        },
        {
          "internalType": "uint256",
          "name": "",
          "type": "uint256"
        }
      ],
      "payable": false,
      "stateMutability": "view",
      "type": "function"
    }
  ],
  "bytecode": "0x608060405234801561001057600080fd5b506108c7806100206000396000f3fe608060405234801561001057600080fd5b506004361061004c5760003560e01c806305708e1c146100515780630b3de1b41461023a5780632efbd70d1461025e578063c0d25cf8146102e1575b600080fd5b6102386004803603606081101561006757600080fd5b810190808035906020019064010000000081111561008457600080fd5b82018360208201111561009657600080fd5b803590602001918460018302840111640100000000831117156100b857600080fd5b91908080601f016020809104026020016040519081016040528093929190818152602001838380828437600081840152601f19601f8201169050808301925050505050505091929192908035906020019064010000000081111561011b57600080fd5b82018360208201111561012d57600080fd5b8035906020019184600183028401116401000000008311171561014f57600080fd5b91908080601f016020809104026020016040519081016040528093929190818152602001838380828437600081840152601f19601f820116905080830192505050505050509192919290803590602001906401000000008111156101b257600080fd5b8201836020820111156101c457600080fd5b803590602001918460018302840111640100000000831117156101e657600080fd5b91908080601f016020809104026020016040519081016040528093929190818152602001838380828437600081840152601f19601f8201169050808301925050505050505091929192905050506103fe565b005b6102426104fd565b604051808260ff1660ff16815260200191505060405180910390f35b610266610514565b6040518080602001828103825283818151815260200191508051906020019080838360005b838110156102a657808201518184015260208101905061028b565b50505050905090810190601f1680156102d35780820380516001836020036101000a031916815260200191505b509250505060405180910390f35b610310600480360360208110156102f757600080fd5b81019080803560ff1690602001909291905050506105b6565b604051808060200180602001848152602001838103835286818151815260200191508051906020019080838360005b8381101561035a57808201518184015260208101905061033f565b50505050905090810190601f1680156103875780820380516001836020036101000a031916815260200191505b50838103825285818151815260200191508051906020019080838360005b838110156103c05780820151818401526020810190506103a5565b50505050905090810190601f1680156103ed5780820380516001836020036101000a031916815260200191505b509550505050505060405180910390f35b600080805460018160011615610100020316600290049050141561043457826000908051906020019061043292919061074c565b505b61043c6107cc565b828160000181905250818160200181905250428160400181815250508060016000600260009054906101000a900460ff1660ff168152602001908152602001600020600082015181600001908051906020019061049a9291906107ed565b5060208201518160010190805190602001906104b79291906107ed565b50604082015181600201559050506002600081819054906101000a900460ff168092919060010191906101000a81548160ff021916908360ff1602179055505050505050565b6000600260009054906101000a900460ff16905090565b606060008054600181600116156101000203166002900480601f0160208091040260200160405190810160405280929190818152602001828054600181600116156101000203166002900480156105ac5780601f10610581576101008083540402835291602001916105ac565b820191906000526020600020905b81548152906001019060200180831161058f57829003601f168201915b5050505050905090565b6060806000600160008560ff168152602001908152602001600020600001600160008660ff168152602001908152602001600020600101600160008760ff16815260200190815260200160002060020154828054600181600116156101000203166002900480601f01602080910402602001604051908101604052809291908181526020018280546001816001161561010002031660029004801561069c5780601f106106715761010080835404028352916020019161069c565b820191906000526020600020905b81548152906001019060200180831161067f57829003601f168201915b50505050509250818054600181600116156101000203166002900480601f0160208091040260200160405190810160405280929190818152602001828054600181600116156101000203166002900480156107385780601f1061070d57610100808354040283529160200191610738565b820191906000526020600020905b81548152906001019060200180831161071b57829003601f168201915b505050505091509250925092509193909250565b828054600181600116156101000203166002900490600052602060002090601f016020900481019282601f1061078d57805160ff19168380011785556107bb565b828001600101855582156107bb579182015b828111156107ba57825182559160200191906001019061079f565b5b5090506107c8919061086d565b5090565b60405180606001604052806060815260200160608152602001600081525090565b828054600181600116156101000203166002900490600052602060002090601f016020900481019282601f1061082e57805160ff191683800117855561085c565b8280016001018555821561085c579182015b8281111561085b578251825591602001919060010190610840565b5b509050610869919061086d565b5090565b61088f91905b8082111561088b576000816000905550600101610873565b5090565b9056fea265627a7a723158204e726ef0cc1ebe115cbdfeefdec9aa8b15014c0247e9ec47dd590140d438e12464736f6c63430005100032",
  "source": "pragma solidity >=0.4.22 <0.7.0;\n\ncontract FoodTransportation{\n    struct Location{\n        string locationName;\n        string transPerson;\n        uint timeStamp;\n    }\n    string foodName;\n\n    mapping (uint => Location) trail;\n    uint8 locationNum;\n\n    function addNewLocation(string memory food,string memory locationName,string memory transPerson)public{\n        if(bytes(foodName).length == 0){\n            foodName = food;\n        }\n        Location memory newLocation;\n        newLocation.locationName = locationName;\n        newLocation.transPerson = transPerson;\n        newLocation.timeStamp = now;\n        trail[locationNum] = newLocation;\n        locationNum++;\n    }\n\n    function getLocationNum() public view returns(uint8){\n        return locationNum;\n    }\n\n    function getFoodName() public view returns(string memory){\n        return foodName;\n    }\n\n    function getLocation(uint8 locationNo) public view returns(string memory,string memory,uint){\n        return (trail[locationNo].locationName,trail[locationNo].transPerson,trail[locationNo].timeStamp);\n    }\n}",
  "sourcePath": "/Users/xuexiaoqian/mychain/Dapp/FoodTransportation/src/contracts/FoodTransportation.sol",
  "compiler": {
    "name": "solc",
    "version": "0.5.16+commit.9c3226ce.Emscripten.clang"
  },
  "schemaVersion": "3.3.0",
  "updatedAt": "2022-12-27T17:22:58.197Z",
  "networkType": "ethereum",
  "devdoc": {
    "methods": {}
  },
  "userdoc": {
    "methods": {}
  }
}